:040000000C944E000E
:100004000C9400000C9400000C9400000C9400006C
:100014000C9400000C9400000C9400000C9400005C
:100024000C9400000C9400000C9400000C9400004C
:100034000C9400000C9400000C9400000C9400003C
:100044000C9400000C9400000C9400000C9400002C
:100054001027E80364000A000100001000011000EA
:100064000100320025642564256425642564256423
:1000740025642564000001002D4E414E00494E4682
:10008400000080C002000A0066000100A9017A0095
:100094000200AD0186000000F894EE27ECBBF1E00D
:1000A400FBBFEBBFE5BFF8E1F1BDE1BD8DE0A2E030
:1000B400BB27ED938A95E9F780E094E0A0E6ED9301
:1000C4000197E9F7E8E8F0E085919591009761F0F0
:1000D400A591B59105901590BF01F00105900D9281
:1000E4000197E1F7FB01F0CFEFE5EDBFE4E0EEBFF0
:1000F400C0E6D1E00C948201AA93E881E062E7B9FA
:1001040085E28A95F1F7369A349BFECF349AE5B1AD
:100114000C94F604979A969805C09798969A07C0F7
:100124009798969A9398929A0895979A9698939AEC
:1001340092980895A0E0E0DFE0936001A1E0DCDFA5
:10014400E0936101A2E0D8DFE0936201A3E0D4DF91
:10015400E0936301A4E0D0DFE0936401A5E0CCDF89
:10016400E0936501A6E0C8DFE0936601A7E0C4DF81
:10017400E093670188249924E8E0F0E08E169F0656
:1001840014F00C941C010E9411050C90A8E6B1E037
:10019400A80DB91DEC91E01520F4F401E859FE4FC7
:1001A40009C0E0917001A0916001AE1748F4F40118
:1001B400E059FE4F0F010E941105EC91D001EC9320
:1001C400F401E858FE4FBF01A8E6B1E0A80DB91D3F
:1001D4000C901124A0E7B1E0A80DB91DEC91F0E05A
:1001E400D001AE1BBF0BE2E0F0E00E94B4050E2E7E
:1001F400A0E7B1E0A80DB91DEC91E00DDB01EC9393
:100204000E9411050C90A8E7B1E0A80DB91DEC916E
:100214000E1630F4A0E8B1E0A80DB91DE0E005C069
:10022400A0E8B1E0A80DB91DE1E0EC93F40131962A
:100234004F01A2CFE4E0EA93A0E00E948B04E8E837
:10024400F1E0FA93EA93E8E6F0E0FA93EA93E091B6
:1002540080010E941605E09181010E941605E0913B
:1002640082010E941605E09183010E941605E09127
:1002740083010E941605E09184010E941605E09115
:1002840085010E941605E09186010E941605E09101
:1002940087010E94160584E20E943704A896A8E804
:1002A400B1E00E94B9040895E0918701A0E8EA0250
:1002B400602DE0918601A0E4EA02F0016E0FE09166
:1002C4008501A0E2EA02F0016E0FE0918401A0E151
:1002D400EA02F001A62FAE0FE0918301EE0FEE0FBC
:1002E400EE0FAE0FE0918201EE0FEE0FAE0FE09134
:1002F4008101EE0FEA0FA0918001EA0F7E2E08958E
:10030400E0E0EBBBEABBE8BBE7BBE5BBE4BBE2BBBD
:10031400EFEFE1BBE0E0E3BFE2BFECBFE1EAEFBD3A
:10032400EDE0EEBDE0E0EDBDECBDE7BDE6BDEBBD4F
:10033400EABDE9BDE8BDE2BDE5BDE4BDE3BDE5BFA1
:10034400E4BFE9BFEAB9E0E8E8B9E0E0E0BFE0E231
:10035400E7B9E4E8E6B9E0E0EDB9E6BFA0E10E9460
:10036400CA04A2DFE7DEE72DF0E0EF37A0E0FA07EA
:1003740019F40E941C05FEC0EF33A0E0FA0719F43B
:100384000E941C05F7C0EF31A0E0FA0719F40E949F
:100394001C05F0C0EF30A0E0FA0719F40E941C0518
:1003A400E9C0E730A0E0FA0731F4E7EFFFEF2F01EF
:1003B4000E941C05DFC0E130A0E0FA0739F4E7EF42
:1003C400FFEF2F01ADDE0E942305D4C0E330A0E08F
:1003D400FA0729F40E942A050E942305CBC0E230C3
:1003E400A0E0FA0729F40E942F05EFE0F0E0C2C074
:1003F400E630A0E0FA0729F40E942F05EEE1F0E0D0
:10040400B9C0E430A0E0FA0749F40E942A05E4E602
:10041400F0E0F9BDE8BDEEE1F0E0ACC0EC30A0E006
:10042400FA0729F40E942A05E4E6F0E09FC0E830C8
:10043400A0E0FA0741F46EDEE4E6F0E0F9BDE8BDC1
:10044400E0E5F0E097C0E831A0E0FA0731F462DEBD
:10045400E4E1F0E0F9BDE8BD8DC0E031A0E0FA07C9
:1004640031F458DEE0E5F0E00E94370583C0E03364
:10047400A0E0FA0731F44EDEE2E3F0E00E94370533
:1004840079C0E032A0E0FA0739F40E943C05E8E2C2
:10049400F0E00E9437056EC0E036A0E0FA0739F4B8
:1004A4000E943C05EEE1F0E00E94370563C0E034B1
:1004B400A0E0FA0739F40E943C05EEE1F0E00E9466
:1004C400370558C0E03CA0E0FA0729F40E943C0537
:1004D4000E9441054FC0E038A0E0FA0729F40E94C9
:1004E40048050E94410546C0E03EA0E0FA0729F411
:1004F4000E9448050E944D053DC0E03FA0E0FA0778
:1005040029F40E9448050E944D0534C0E83FA0E04C
:10051400FA0719F40E9452052DC0EC3FA0E0FA0737
:1005240019F40E94520526C0EE3FA0E0FA0719F420
:100534000E9452051FC0309791F4002440145004C7
:1005440014F4EEDD05C00024041405043CF4EDDDD0
:10055400E8E2F0E0F9BDE8BDFBBDEABD0DC0EF3F48
:10056400A0E0FA0749F4D9DDE2E3F0E0F9BDE8BD23
:10057400E2E3F0E0FBBDEABDF4CEFFCFBA93AA9369
:100584001A930A93AA81BB8112960E94C7053097D9
:1005940059F1AA81BB8114960E94C7058F01309737
:1005A40061F00230E0E01E07F0F0F80131978F01AE
:1005B400AA81BB811496ED93FC93AA81BB81129608
:1005C400ED91FD913196FE93EE933197AC81A0832A
:1005D400AA81BB810E94C705FF232AF0ED91FD91FA
:1005E4003196FE93EE9306C0AA81BB81EFEFFFEF35
:1005F400ED93FC931981088125960895BA93AA93E3
:1006040026970E94D40510E0AC85BD85E0E0F0E0BB
:10061400ED93FC93EA89FB893196EA8BFB8B319746
:10062400E4912E2FE03011F40C942F04E12FE030EC
:1006340039F4253211F411E002C00E9455050CC1B1
:10064400E130A9F4253219F40E94550504C112E0E1
:1006540040E000E02D3211F401E0FEC02B3211F431
:100664004BE2FAC0203211F440E2F6C002C0E2309C
:1006740039F450E013E0203311F40068EDC004C0F5
:10068400E33011F00C942E04203310F02A3308F0D8
:1006940007C0AAE05A9F502DE22FE0535E0FDCC042
:1006A400E22FE33649F40E945C05E889F989A481C4
:1006B400AA930E946205CFC0E33741F40E945C050F
:1006C4000E9468050E94F8041E2F0AC0E03761F4F6
:1006D4000E945C050E9468050E9404051E2F0860A4
:1006E40002600F7730E035C0E43611F0E93611F4DA
:1006F400046002C0E53731F4E4E5F0E0EE83FF8303
:1007040015E00DC0E83511F4086004C0E83711F0B5
:100714000C942D04EEE5F0E0EE83FF8314E002FF79
:1007240014C00E945C050E947205AB85AA233AF4AA
:10073400EA85FB850E949D05EA87FB874DE24030F0
:1007440011F01F5F01C00B7F04C00E945C050E9472
:10075400720500FD11C0151778F407FF08C002FFE9
:1007640004C00B7F242F115001C020E301C020E2FC
:100774000E9455055150EFCF312F01FF17C0303083
:10078400A1F003FF06C0EE81FF812591EE83FF8374
:1007940005C0AE81BF812D91AE83BF830E945505F4
:1007A400503009F051503150EACF4BC020E3EE8174
:1007B400FF810E94CB05E887F987EE81FF8132969D
:1007C400EE83FF83E885F985AA85BB85AE17BF074D
:1007D40050F02F5FA885B985EA85FB85EA1BFB0BE2
:1007E400EA87FB87EFCF2A3328F003FF02C0295F93
:1007F40001C0295D04FD1AC0213320F4A885B98500
:10080400119709F409C0531710F000FF01C013C079
:1008140020E207FF0BC020E3006102FF07C00B7F4B
:100824004A930E946205503009F051500E945505C8
:10083400503009F051503150A885B985129708F00D
:10084400B5CF00FF08C0503031F05150E0E2EA93D8
:100854000E946205F8CF10E0DDCEAC85BD850E9414
:10086400C7050E94DB0564960895FF92F82E26972B
:100874000E94D6050E947A05309719F4EFEFFFEF36
:1008840023C0DE0116960E9499058D010E947A0507
:10089400EE83FF83E0E0E887E987DE011A960E9491
:1008A40099050E94C705FA93EA931A930A93E0EC18
:1008B400F2E0FA93EA93DE011A96A0DE9F01AE817C
:1008C400BF81E0E0EC93F9010E94DD052A96FF90D8
:1008D4000895AA93E8B3EF70AE2FE881E07FEA2B86
:1008E400E8BB87E08A95F1F7C29A82E18A95F1F72D
:1008F400C29882E18A95F1F777C0AA93A881E9DFCB
:10090400E881E295E883A881E4DF88EB8A95F1F732
:100914006BC0AA93E881F0E0E355FE4FE081A98122
:10092400AE0FEBDF6980D88022960895A2E00E9482
:100934008105ACE0E2DFA1E00E948105E0E0DE2E6B
:100944006E2E0895AA93A881AA3011F06C1448F071
:10095400E0E0EA93D394AD2DDCDFA881AA3009F45A
:1009640043C06394C09AA881C8DFC0983DC0BA93BD
:10097400AA931A93A981BA81ED91A983BA831E2FF0
:10098400E03019F0A12FDEDFF5CF1881239608950A
:10099400AA93E7B3E06FE7BBBA9AB89AB99AC29838
:1009A400C098C198C880E881E058E093AF01E8811D
:1009B400E054E093B001A4E1B0E00E948F050E94EE
:1009C40087050E9487050E948705A0E282DF84E1F3
:1009D40091E00197F1F7A8E290DFA4E08EDFA5E8AB
:1009E4008CDFA6E08ADFA2DF21960895BA93AA934A
:1009F400A991B991EE27FF276D91662311F03196E5
:100A0400FBCF0895BA93AA93AA27BB27E991F9913A
:100A14000590002011F01196FBCFFD010895A0E68A
:100A2400B1E0A80DB91D0895FF27662777270E9416
:100A3400CF0508950E949200E8E2F0E0F9BDE8BD18
:100A44000895EBE4F0E0F9BDE8BDEAE0F0E00895D4
:100A5400E7EFFFEF2F010C948C00E7EFFFEF2F017E
:100A6400E4E6F0E0F9BDE8BD0895F9BDE8BDE4E6CB
:100A7400F0E00895E9E0F0E02F010C948C00EAE046
:100A8400F0E0F9BDE8BDEBE4F0E00895E9E0F0E062
:100A94002F010C949700E8E2F0E0F9BDE8BD089559
:100AA4000E949700F8CF2A93AD85BE85EF85F8891B
:100AB40009950895E889F9893497E88BF98B0895A5
:100AC400AD85BE85EF85F88909950895A889B9890A
:100AD40014960E94C705EE83FF83AE81BF810895FB
:100AE400A889B98914960E94C705EA87FB870895E7
:100AF400DE011C960E9499050E94C70508950E9474
:100B04007F04A3E0B0E00C948F05A0E30E946B0483
:100B140084E191E00197F1F70895109639F08DEC96
:100B24009AE00197F1F7A8951197C9F70895002461
:100B3400AF0DB01D0895F195E195F040089500249E
:100B4400112490E1AA0FBB1F001C111C0E1A1F0ACE
:100B540018F40E0E1F1E01C0A1609A9599F7FD01AD
:100B6400D001089504D0EBDF0EF4E5DF0895E89496
:100B7400F7FF02C0E0DF6894B7FF06C0A095B09508
:100B8400119600F8039400FA0895ED91FC911197E1
:100B940008950590F491E02D08957A936A93FA9359
:100BA400EA9308955A934A933A932A931A930A9389
:100BB40008955D814C813B812A81198108810895C2
:00000001FF
